{
    "_format": "hh-sol-artifact-1",
    "contractName": "Exchange",
    "sourceName": "contracts/Exchange.sol",
    "abi": [
        {
            "inputs": [
                {
                    "internalType": "address",
                    "name": "_quickSwapRouter",
                    "type": "address"
                },
                {
                    "internalType": "uint256",
                    "name": "_feePercentage",
                    "type": "uint256"
                }
            ],
            "stateMutability": "nonpayable",
            "type": "constructor"
        },
        {
            "anonymous": false,
            "inputs": [
                {
                    "indexed": true,
                    "internalType": "address",
                    "name": "previousOwner",
                    "type": "address"
                },
                {
                    "indexed": true,
                    "internalType": "address",
                    "name": "newOwner",
                    "type": "address"
                }
            ],
            "name": "OwnershipTransferred",
            "type": "event"
        },
        {
            "anonymous": false,
            "inputs": [
                {
                    "indexed": true,
                    "internalType": "address",
                    "name": "sender",
                    "type": "address"
                },
                {
                    "indexed": true,
                    "internalType": "address",
                    "name": "sourceToken",
                    "type": "address"
                },
                {
                    "indexed": true,
                    "internalType": "address",
                    "name": "destinationToken",
                    "type": "address"
                },
                {
                    "indexed": false,
                    "internalType": "uint256",
                    "name": "sourceAmount",
                    "type": "uint256"
                },
                {
                    "indexed": false,
                    "internalType": "uint256",
                    "name": "destinationAmount",
                    "type": "uint256"
                }
            ],
            "name": "Swap",
            "type": "event"
        },
        {
            "inputs": [],
            "name": "feePercentage",
            "outputs": [
                {
                    "internalType": "uint256",
                    "name": "",
                    "type": "uint256"
                }
            ],
            "stateMutability": "view",
            "type": "function"
        },
        {
            "inputs": [],
            "name": "owner",
            "outputs": [
                {
                    "internalType": "address",
                    "name": "",
                    "type": "address"
                }
            ],
            "stateMutability": "view",
            "type": "function"
        },
        {
            "inputs": [],
            "name": "quickSwapRouter",
            "outputs": [
                {
                    "internalType": "address",
                    "name": "",
                    "type": "address"
                }
            ],
            "stateMutability": "view",
            "type": "function"
        },
        {
            "inputs": [],
            "name": "renounceOwnership",
            "outputs": [],
            "stateMutability": "nonpayable",
            "type": "function"
        },
        {
            "inputs": [
                {
                    "internalType": "uint256",
                    "name": "_feePercentage",
                    "type": "uint256"
                }
            ],
            "name": "setFeePercentage",
            "outputs": [],
            "stateMutability": "nonpayable",
            "type": "function"
        },
        {
            "inputs": [
                {
                    "internalType": "address",
                    "name": "sourceToken",
                    "type": "address"
                },
                {
                    "internalType": "address",
                    "name": "destinationToken",
                    "type": "address"
                },
                {
                    "internalType": "uint256",
                    "name": "sourceAmount",
                    "type": "uint256"
                }
            ],
            "name": "swapTokens",
            "outputs": [
                {
                    "internalType": "uint256",
                    "name": "",
                    "type": "uint256"
                }
            ],
            "stateMutability": "payable",
            "type": "function"
        },
        {
            "inputs": [
                {
                    "internalType": "address",
                    "name": "newOwner",
                    "type": "address"
                }
            ],
            "name": "transferOwnership",
            "outputs": [],
            "stateMutability": "nonpayable",
            "type": "function"
        }
    ],
    "bytecode": "0x60806040523480156200001157600080fd5b50604051620015db380380620015db8339818101604052810190620000379190620001a1565b620000576200004b620000a760201b60201c565b620000af60201b60201c565b81600160006101000a81548173ffffffffffffffffffffffffffffffffffffffff021916908373ffffffffffffffffffffffffffffffffffffffff16021790555080600281905550505062000254565b600033905090565b60008060009054906101000a900473ffffffffffffffffffffffffffffffffffffffff169050816000806101000a81548173ffffffffffffffffffffffffffffffffffffffff021916908373ffffffffffffffffffffffffffffffffffffffff1602179055508173ffffffffffffffffffffffffffffffffffffffff168173ffffffffffffffffffffffffffffffffffffffff167f8be0079c531659141344cd1fd0a4f28419497f9722a3daafe3b4186f6b6457e060405160405180910390a35050565b600081519050620001848162000220565b92915050565b6000815190506200019b816200023a565b92915050565b60008060408385031215620001b557600080fd5b6000620001c58582860162000173565b9250506020620001d8858286016200018a565b9150509250929050565b6000620001ef82620001f6565b9050919050565b600073ffffffffffffffffffffffffffffffffffffffff82169050919050565b6000819050919050565b6200022b81620001e2565b81146200023757600080fd5b50565b620002458162000216565b81146200025157600080fd5b50565b61137780620002646000396000f3fe6080604052600436106100705760003560e01c8063ae06c1b71161004e578063ae06c1b7146100e2578063e189eb421461010b578063ec6cc0cc14610136578063f2fde38b1461016657610070565b8063715018a6146100755780638da5cb5b1461008c578063a001ecdd146100b7575b600080fd5b34801561008157600080fd5b5061008a61018f565b005b34801561009857600080fd5b506100a16101a3565b6040516100ae9190610e80565b60405180910390f35b3480156100c357600080fd5b506100cc6101cc565b6040516100d99190610fbb565b60405180910390f35b3480156100ee57600080fd5b5061010960048036038101906101049190610bff565b6101d2565b005b34801561011757600080fd5b50610120610228565b60405161012d9190610e80565b60405180910390f35b610150600480360381019061014b9190610b46565b61024e565b60405161015d9190610fbb565b60405180910390f35b34801561017257600080fd5b5061018d60048036038101906101889190610b1d565b610865565b005b6101976108e9565b6101a16000610967565b565b60008060009054906101000a900473ffffffffffffffffffffffffffffffffffffffff16905090565b60025481565b6101da6108e9565b606481111561021e576040517f08c379a000000000000000000000000000000000000000000000000000000000815260040161021590610efb565b60405180910390fd5b8060028190555050565b600160009054906101000a900473ffffffffffffffffffffffffffffffffffffffff1681565b60008073ffffffffffffffffffffffffffffffffffffffff168473ffffffffffffffffffffffffffffffffffffffff1614156102bf576040517f08c379a00000000000000000000000000000000000000000000000000000000081526004016102b690610f7b565b60405180910390fd5b600073ffffffffffffffffffffffffffffffffffffffff168373ffffffffffffffffffffffffffffffffffffffff16141561032f576040517f08c379a000000000000000000000000000000000000000000000000000000000815260040161032690610f9b565b60405180910390fd5b60008211610372576040517f08c379a000000000000000000000000000000000000000000000000000000000815260040161036990610f3b565b60405180910390fd5b60006064600254846103849190611187565b61038e9190611156565b90508473ffffffffffffffffffffffffffffffffffffffff166323b872dd3330866040518463ffffffff1660e01b81526004016103cd93929190610e9b565b602060405180830381600087803b1580156103e757600080fd5b505af11580156103fb573d6000803e3d6000fd5b505050506040513d601f19601f8201168201806040525081019061041f9190610bd6565b508473ffffffffffffffffffffffffffffffffffffffff1663095ea7b3600160009054906101000a900473ffffffffffffffffffffffffffffffffffffffff16856040518363ffffffff1660e01b815260040161047d929190610ed2565b602060405180830381600087803b15801561049757600080fd5b505af11580156104ab573d6000803e3d6000fd5b505050506040513d601f19601f820116820180604052508101906104cf9190610bd6565b506000600267ffffffffffffffff811115610513577f4e487b7100000000000000000000000000000000000000000000000000000000600052604160045260246000fd5b6040519080825280602002602001820160405280156105415781602001602082028036833780820191505090505b509050858160008151811061057f577f4e487b7100000000000000000000000000000000000000000000000000000000600052603260045260246000fd5b602002602001019073ffffffffffffffffffffffffffffffffffffffff16908173ffffffffffffffffffffffffffffffffffffffff168152505084816001815181106105f4577f4e487b7100000000000000000000000000000000000000000000000000000000600052603260045260246000fd5b602002602001019073ffffffffffffffffffffffffffffffffffffffff16908173ffffffffffffffffffffffffffffffffffffffff16815250506000600160009054906101000a900473ffffffffffffffffffffffffffffffffffffffff1673ffffffffffffffffffffffffffffffffffffffff166338ed1739848761067a91906111e1565b600085306107084261068c9190611100565b6040518663ffffffff1660e01b81526004016106ac959493929190610fd6565b600060405180830381600087803b1580156106c657600080fd5b505af11580156106da573d6000803e3d6000fd5b505050506040513d6000823e3d601f19601f820116820180604052508101906107039190610b95565b9050600081600181518110610741577f4e487b7100000000000000000000000000000000000000000000000000000000600052603260045260246000fd5b602002602001015190508673ffffffffffffffffffffffffffffffffffffffff1663a9059cbb33836040518363ffffffff1660e01b8152600401610786929190610ed2565b602060405180830381600087803b1580156107a057600080fd5b505af11580156107b4573d6000803e3d6000fd5b505050506040513d601f19601f820116820180604052508101906107d89190610bd6565b508673ffffffffffffffffffffffffffffffffffffffff168873ffffffffffffffffffffffffffffffffffffffff163373ffffffffffffffffffffffffffffffffffffffff167fcd3829a3813dc3cdd188fd3d01dcf3268c16be2fdd2dd21d0665418816e46062898560405161084f929190611030565b60405180910390a4809450505050509392505050565b61086d6108e9565b600073ffffffffffffffffffffffffffffffffffffffff168173ffffffffffffffffffffffffffffffffffffffff1614156108dd576040517f08c379a00000000000000000000000000000000000000000000000000000000081526004016108d490610f1b565b60405180910390fd5b6108e681610967565b50565b6108f1610a2b565b73ffffffffffffffffffffffffffffffffffffffff1661090f6101a3565b73ffffffffffffffffffffffffffffffffffffffff1614610965576040517f08c379a000000000000000000000000000000000000000000000000000000000815260040161095c90610f5b565b60405180910390fd5b565b60008060009054906101000a900473ffffffffffffffffffffffffffffffffffffffff169050816000806101000a81548173ffffffffffffffffffffffffffffffffffffffff021916908373ffffffffffffffffffffffffffffffffffffffff1602179055508173ffffffffffffffffffffffffffffffffffffffff168173ffffffffffffffffffffffffffffffffffffffff167f8be0079c531659141344cd1fd0a4f28419497f9722a3daafe3b4186f6b6457e060405160405180910390a35050565b600033905090565b6000610a46610a418461108a565b611059565b90508083825260208201905082856020860282011115610a6557600080fd5b60005b85811015610a955781610a7b8882610b08565b845260208401935060208301925050600181019050610a68565b5050509392505050565b600081359050610aae816112fc565b92915050565b600082601f830112610ac557600080fd5b8151610ad5848260208601610a33565b91505092915050565b600081519050610aed81611313565b92915050565b600081359050610b028161132a565b92915050565b600081519050610b178161132a565b92915050565b600060208284031215610b2f57600080fd5b6000610b3d84828501610a9f565b91505092915050565b600080600060608486031215610b5b57600080fd5b6000610b6986828701610a9f565b9350506020610b7a86828701610a9f565b9250506040610b8b86828701610af3565b9150509250925092565b600060208284031215610ba757600080fd5b600082015167ffffffffffffffff811115610bc157600080fd5b610bcd84828501610ab4565b91505092915050565b600060208284031215610be857600080fd5b6000610bf684828501610ade565b91505092915050565b600060208284031215610c1157600080fd5b6000610c1f84828501610af3565b91505092915050565b6000610c348383610c40565b60208301905092915050565b610c4981611215565b82525050565b610c5881611215565b82525050565b6000610c69826110c6565b610c7381856110de565b9350610c7e836110b6565b8060005b83811015610caf578151610c968882610c28565b9750610ca1836110d1565b925050600181019050610c82565b5085935050505092915050565b610cc58161125d565b82525050565b6000610cd86017836110ef565b91507f4665652070657263656e7461676520746f6f20686967680000000000000000006000830152602082019050919050565b6000610d186026836110ef565b91507f4f776e61626c653a206e6577206f776e657220697320746865207a65726f206160008301527f64647265737300000000000000000000000000000000000000000000000000006020830152604082019050919050565b6000610d7e6015836110ef565b91507f496e76616c696420736f7572636520616d6f756e7400000000000000000000006000830152602082019050919050565b6000610dbe6020836110ef565b91507f4f776e61626c653a2063616c6c6572206973206e6f7420746865206f776e65726000830152602082019050919050565b6000610dfe6014836110ef565b91507f496e76616c696420736f7572636520746f6b656e0000000000000000000000006000830152602082019050919050565b6000610e3e6019836110ef565b91507f496e76616c69642064657374696e6174696f6e20746f6b656e000000000000006000830152602082019050919050565b610e7a81611253565b82525050565b6000602082019050610e956000830184610c4f565b92915050565b6000606082019050610eb06000830186610c4f565b610ebd6020830185610c4f565b610eca6040830184610e71565b949350505050565b6000604082019050610ee76000830185610c4f565b610ef46020830184610e71565b9392505050565b60006020820190508181036000830152610f1481610ccb565b9050919050565b60006020820190508181036000830152610f3481610d0b565b9050919050565b60006020820190508181036000830152610f5481610d71565b9050919050565b60006020820190508181036000830152610f7481610db1565b9050919050565b60006020820190508181036000830152610f9481610df1565b9050919050565b60006020820190508181036000830152610fb481610e31565b9050919050565b6000602082019050610fd06000830184610e71565b92915050565b600060a082019050610feb6000830188610e71565b610ff86020830187610cbc565b818103604083015261100a8186610c5e565b90506110196060830185610c4f565b6110266080830184610e71565b9695505050505050565b60006040820190506110456000830185610e71565b6110526020830184610e71565b9392505050565b6000604051905081810181811067ffffffffffffffff821117156110805761107f6112cd565b5b8060405250919050565b600067ffffffffffffffff8211156110a5576110a46112cd565b5b602082029050602081019050919050565b6000819050602082019050919050565b600081519050919050565b6000602082019050919050565b600082825260208201905092915050565b600082825260208201905092915050565b600061110b82611253565b915061111683611253565b9250827fffffffffffffffffffffffffffffffffffffffffffffffffffffffffffffffff0382111561114b5761114a61126f565b5b828201905092915050565b600061116182611253565b915061116c83611253565b92508261117c5761117b61129e565b5b828204905092915050565b600061119282611253565b915061119d83611253565b9250817fffffffffffffffffffffffffffffffffffffffffffffffffffffffffffffffff04831182151516156111d6576111d561126f565b5b828202905092915050565b60006111ec82611253565b91506111f783611253565b92508282101561120a5761120961126f565b5b828203905092915050565b600061122082611233565b9050919050565b60008115159050919050565b600073ffffffffffffffffffffffffffffffffffffffff82169050919050565b6000819050919050565b600061126882611253565b9050919050565b7f4e487b7100000000000000000000000000000000000000000000000000000000600052601160045260246000fd5b7f4e487b7100000000000000000000000000000000000000000000000000000000600052601260045260246000fd5b7f4e487b7100000000000000000000000000000000000000000000000000000000600052604160045260246000fd5b61130581611215565b811461131057600080fd5b50565b61131c81611227565b811461132757600080fd5b50565b61133381611253565b811461133e57600080fd5b5056fea2646970667358221220e794afcf06fd9751cf93ea13d1a6fb9ec3196024170767400bf49b60b176f6fb64736f6c63430008000033",
    "linkReferences": {},
    "deployedLinkReferences": {}
}