{
    "_format": "hh-sol-artifact-1",
    "contractName": "Liquidity",
    "sourceName": "contracts/Liquidity.sol",
    "abi": [
        {
            "inputs": [
                {
                    "internalType": "address",
                    "name": "_quickSwapRouter",
                    "type": "address"
                }
            ],
            "stateMutability": "nonpayable",
            "type": "constructor"
        },
        {
            "anonymous": false,
            "inputs": [
                {
                    "indexed": true,
                    "internalType": "address",
                    "name": "sender",
                    "type": "address"
                },
                {
                    "indexed": true,
                    "internalType": "address",
                    "name": "tokenA",
                    "type": "address"
                },
                {
                    "indexed": true,
                    "internalType": "address",
                    "name": "tokenB",
                    "type": "address"
                },
                {
                    "indexed": false,
                    "internalType": "uint256",
                    "name": "amountA",
                    "type": "uint256"
                },
                {
                    "indexed": false,
                    "internalType": "uint256",
                    "name": "amountB",
                    "type": "uint256"
                }
            ],
            "name": "AddLiquidity",
            "type": "event"
        },
        {
            "anonymous": false,
            "inputs": [
                {
                    "indexed": true,
                    "internalType": "address",
                    "name": "previousOwner",
                    "type": "address"
                },
                {
                    "indexed": true,
                    "internalType": "address",
                    "name": "newOwner",
                    "type": "address"
                }
            ],
            "name": "OwnershipTransferred",
            "type": "event"
        },
        {
            "inputs": [
                {
                    "internalType": "address",
                    "name": "tokenA",
                    "type": "address"
                },
                {
                    "internalType": "address",
                    "name": "tokenB",
                    "type": "address"
                },
                {
                    "internalType": "uint256",
                    "name": "amountA",
                    "type": "uint256"
                },
                {
                    "internalType": "uint256",
                    "name": "amountB",
                    "type": "uint256"
                }
            ],
            "name": "addLiquidity",
            "outputs": [],
            "stateMutability": "payable",
            "type": "function"
        },
        {
            "inputs": [],
            "name": "owner",
            "outputs": [
                {
                    "internalType": "address",
                    "name": "",
                    "type": "address"
                }
            ],
            "stateMutability": "view",
            "type": "function"
        },
        {
            "inputs": [
                {
                    "internalType": "address",
                    "name": "",
                    "type": "address"
                },
                {
                    "internalType": "address",
                    "name": "",
                    "type": "address"
                }
            ],
            "name": "poolInfo",
            "outputs": [
                {
                    "internalType": "uint256",
                    "name": "",
                    "type": "uint256"
                }
            ],
            "stateMutability": "view",
            "type": "function"
        },
        {
            "inputs": [],
            "name": "quickSwapRouter",
            "outputs": [
                {
                    "internalType": "address",
                    "name": "",
                    "type": "address"
                }
            ],
            "stateMutability": "view",
            "type": "function"
        },
        {
            "inputs": [
                {
                    "internalType": "address",
                    "name": "tokenA",
                    "type": "address"
                },
                {
                    "internalType": "address",
                    "name": "tokenB",
                    "type": "address"
                },
                {
                    "internalType": "uint256",
                    "name": "liquidity",
                    "type": "uint256"
                }
            ],
            "name": "removeLiquidity",
            "outputs": [],
            "stateMutability": "payable",
            "type": "function"
        },
        {
            "inputs": [],
            "name": "renounceOwnership",
            "outputs": [],
            "stateMutability": "nonpayable",
            "type": "function"
        },
        {
            "inputs": [
                {
                    "internalType": "address",
                    "name": "newOwner",
                    "type": "address"
                }
            ],
            "name": "transferOwnership",
            "outputs": [],
            "stateMutability": "nonpayable",
            "type": "function"
        }
    ],
    "bytecode": "0x60806040523480156200001157600080fd5b506040516200183638038062001836833981810160405281019062000037919062000182565b620000576200004b6200009f60201b60201c565b620000a760201b60201c565b80600160006101000a81548173ffffffffffffffffffffffffffffffffffffffff021916908373ffffffffffffffffffffffffffffffffffffffff16021790555050620001fc565b600033905090565b60008060009054906101000a900473ffffffffffffffffffffffffffffffffffffffff169050816000806101000a81548173ffffffffffffffffffffffffffffffffffffffff021916908373ffffffffffffffffffffffffffffffffffffffff1602179055508173ffffffffffffffffffffffffffffffffffffffff168173ffffffffffffffffffffffffffffffffffffffff167f8be0079c531659141344cd1fd0a4f28419497f9722a3daafe3b4186f6b6457e060405160405180910390a35050565b6000815190506200017c81620001e2565b92915050565b6000602082840312156200019557600080fd5b6000620001a5848285016200016b565b91505092915050565b6000620001bb82620001c2565b9050919050565b600073ffffffffffffffffffffffffffffffffffffffff82169050919050565b620001ed81620001ae565b8114620001f957600080fd5b50565b61162a806200020c6000396000f3fe6080604052600436106100705760003560e01c8063d752fab21161004e578063d752fab2146100d3578063e189eb42146100ef578063e1b7cebd1461011a578063f2fde38b1461015757610070565b8063715018a6146100755780638da5cb5b1461008c578063cf6c62ea146100b7575b600080fd5b34801561008157600080fd5b5061008a610180565b005b34801561009857600080fd5b506100a1610194565b6040516100ae91906111ff565b60405180910390f35b6100d160048036038101906100cc9190610ed5565b6101bd565b005b6100ed60048036038101906100e89190610e86565b610791565b005b3480156100fb57600080fd5b50610104610bb4565b60405161011191906111ff565b60405180910390f35b34801561012657600080fd5b50610141600480360381019061013c9190610e4a565b610bda565b60405161014e9190611447565b60405180910390f35b34801561016357600080fd5b5061017e60048036038101906101799190610e21565b610bff565b005b610188610c83565b6101926000610d01565b565b60008060009054906101000a900473ffffffffffffffffffffffffffffffffffffffff16905090565b600073ffffffffffffffffffffffffffffffffffffffff168473ffffffffffffffffffffffffffffffffffffffff16141561022d576040517f08c379a0000000000000000000000000000000000000000000000000000000008152600401610224906113a7565b60405180910390fd5b600073ffffffffffffffffffffffffffffffffffffffff168373ffffffffffffffffffffffffffffffffffffffff16141561029d576040517f08c379a0000000000000000000000000000000000000000000000000000000008152600401610294906113e7565b60405180910390fd5b600082116102e0576040517f08c379a00000000000000000000000000000000000000000000000000000000081526004016102d790611407565b60405180910390fd5b60008111610323576040517f08c379a000000000000000000000000000000000000000000000000000000000815260040161031a906113c7565b60405180910390fd5b8373ffffffffffffffffffffffffffffffffffffffff166323b872dd3330856040518463ffffffff1660e01b81526004016103609392919061121a565b602060405180830381600087803b15801561037a57600080fd5b505af115801561038e573d6000803e3d6000fd5b505050506040513d601f19601f820116820180604052508101906103b29190610f38565b508273ffffffffffffffffffffffffffffffffffffffff166323b872dd3330846040518463ffffffff1660e01b81526004016103f09392919061121a565b602060405180830381600087803b15801561040a57600080fd5b505af115801561041e573d6000803e3d6000fd5b505050506040513d601f19601f820116820180604052508101906104429190610f38565b508373ffffffffffffffffffffffffffffffffffffffff1663095ea7b3600160009054906101000a900473ffffffffffffffffffffffffffffffffffffffff16846040518363ffffffff1660e01b81526004016104a092919061133e565b602060405180830381600087803b1580156104ba57600080fd5b505af11580156104ce573d6000803e3d6000fd5b505050506040513d601f19601f820116820180604052508101906104f29190610f38565b508273ffffffffffffffffffffffffffffffffffffffff1663095ea7b3600160009054906101000a900473ffffffffffffffffffffffffffffffffffffffff16836040518363ffffffff1660e01b815260040161055092919061133e565b602060405180830381600087803b15801561056a57600080fd5b505af115801561057e573d6000803e3d6000fd5b505050506040513d601f19601f820116820180604052508101906105a29190610f38565b506000806000600160009054906101000a900473ffffffffffffffffffffffffffffffffffffffff1673ffffffffffffffffffffffffffffffffffffffff1663e8e337008888888860008033610708426105fc919061149c565b6040518963ffffffff1660e01b815260040161061f9897969594939291906112c0565b606060405180830381600087803b15801561063957600080fd5b505af115801561064d573d6000803e3d6000fd5b505050506040513d601f19601f820116820180604052508101906106719190610f9d565b92509250925080600260008973ffffffffffffffffffffffffffffffffffffffff1673ffffffffffffffffffffffffffffffffffffffff16815260200190815260200160002060008873ffffffffffffffffffffffffffffffffffffffff1673ffffffffffffffffffffffffffffffffffffffff1681526020019081526020016000206000828254610703919061149c565b925050819055508573ffffffffffffffffffffffffffffffffffffffff168773ffffffffffffffffffffffffffffffffffffffff163373ffffffffffffffffffffffffffffffffffffffff167fc33fbc9654f9c0dcfcbd829113bdb10afe95619bc0824bc5959ad82fd6952bd98888604051610780929190611462565b60405180910390a450505050505050565b600073ffffffffffffffffffffffffffffffffffffffff168373ffffffffffffffffffffffffffffffffffffffff161415610801576040517f08c379a00000000000000000000000000000000000000000000000000000000081526004016107f8906113a7565b60405180910390fd5b600073ffffffffffffffffffffffffffffffffffffffff168273ffffffffffffffffffffffffffffffffffffffff161415610871576040517f08c379a0000000000000000000000000000000000000000000000000000000008152600401610868906113e7565b60405180910390fd5b600081116108b4576040517f08c379a00000000000000000000000000000000000000000000000000000000081526004016108ab90611427565b60405180910390fd5b8273ffffffffffffffffffffffffffffffffffffffff1663095ea7b3600160009054906101000a900473ffffffffffffffffffffffffffffffffffffffff167fffffffffffffffffffffffffffffffffffffffffffffffffffffffffffffffff6040518363ffffffff1660e01b815260040161093192919061133e565b602060405180830381600087803b15801561094b57600080fd5b505af115801561095f573d6000803e3d6000fd5b505050506040513d601f19601f820116820180604052508101906109839190610f38565b508173ffffffffffffffffffffffffffffffffffffffff1663095ea7b3600160009054906101000a900473ffffffffffffffffffffffffffffffffffffffff167fffffffffffffffffffffffffffffffffffffffffffffffffffffffffffffffff6040518363ffffffff1660e01b8152600401610a0192919061133e565b602060405180830381600087803b158015610a1b57600080fd5b505af1158015610a2f573d6000803e3d6000fd5b505050506040513d601f19601f82011682018060405250810190610a539190610f38565b50600160009054906101000a900473ffffffffffffffffffffffffffffffffffffffff1673ffffffffffffffffffffffffffffffffffffffff1663baa2abde8484846000803361070842610aa7919061149c565b6040518863ffffffff1660e01b8152600401610ac99796959493929190611251565b6040805180830381600087803b158015610ae257600080fd5b505af1158015610af6573d6000803e3d6000fd5b505050506040513d601f19601f82011682018060405250810190610b1a9190610f61565b505080600260008573ffffffffffffffffffffffffffffffffffffffff1673ffffffffffffffffffffffffffffffffffffffff16815260200190815260200160002060008473ffffffffffffffffffffffffffffffffffffffff1673ffffffffffffffffffffffffffffffffffffffff1681526020019081526020016000206000828254610ba891906114f2565b92505081905550505050565b600160009054906101000a900473ffffffffffffffffffffffffffffffffffffffff1681565b6002602052816000526040600020602052806000526040600020600091509150505481565b610c07610c83565b600073ffffffffffffffffffffffffffffffffffffffff168173ffffffffffffffffffffffffffffffffffffffff161415610c77576040517f08c379a0000000000000000000000000000000000000000000000000000000008152600401610c6e90611367565b60405180910390fd5b610c8081610d01565b50565b610c8b610dc5565b73ffffffffffffffffffffffffffffffffffffffff16610ca9610194565b73ffffffffffffffffffffffffffffffffffffffff1614610cff576040517f08c379a0000000000000000000000000000000000000000000000000000000008152600401610cf690611387565b60405180910390fd5b565b60008060009054906101000a900473ffffffffffffffffffffffffffffffffffffffff169050816000806101000a81548173ffffffffffffffffffffffffffffffffffffffff021916908373ffffffffffffffffffffffffffffffffffffffff1602179055508173ffffffffffffffffffffffffffffffffffffffff168173ffffffffffffffffffffffffffffffffffffffff167f8be0079c531659141344cd1fd0a4f28419497f9722a3daafe3b4186f6b6457e060405160405180910390a35050565b600033905090565b600081359050610ddc816115af565b92915050565b600081519050610df1816115c6565b92915050565b600081359050610e06816115dd565b92915050565b600081519050610e1b816115dd565b92915050565b600060208284031215610e3357600080fd5b6000610e4184828501610dcd565b91505092915050565b60008060408385031215610e5d57600080fd5b6000610e6b85828601610dcd565b9250506020610e7c85828601610dcd565b9150509250929050565b600080600060608486031215610e9b57600080fd5b6000610ea986828701610dcd565b9350506020610eba86828701610dcd565b9250506040610ecb86828701610df7565b9150509250925092565b60008060008060808587031215610eeb57600080fd5b6000610ef987828801610dcd565b9450506020610f0a87828801610dcd565b9350506040610f1b87828801610df7565b9250506060610f2c87828801610df7565b91505092959194509250565b600060208284031215610f4a57600080fd5b6000610f5884828501610de2565b91505092915050565b60008060408385031215610f7457600080fd5b6000610f8285828601610e0c565b9250506020610f9385828601610e0c565b9150509250929050565b600080600060608486031215610fb257600080fd5b6000610fc086828701610e0c565b9350506020610fd186828701610e0c565b9250506040610fe286828701610e0c565b9150509250925092565b610ff581611526565b82525050565b6110048161156e565b82525050565b600061101760268361148b565b91507f4f776e61626c653a206e6577206f776e657220697320746865207a65726f206160008301527f64647265737300000000000000000000000000000000000000000000000000006020830152604082019050919050565b600061107d60208361148b565b91507f4f776e61626c653a2063616c6c6572206973206e6f7420746865206f776e65726000830152602082019050919050565b60006110bd600f8361148b565b91507f496e76616c696420746f6b656e204100000000000000000000000000000000006000830152602082019050919050565b60006110fd60108361148b565b91507f496e76616c696420616d6f756e742042000000000000000000000000000000006000830152602082019050919050565b600061113d600f8361148b565b91507f496e76616c696420746f6b656e204200000000000000000000000000000000006000830152602082019050919050565b600061117d60108361148b565b91507f496e76616c696420616d6f756e742041000000000000000000000000000000006000830152602082019050919050565b60006111bd60118361148b565b91507f496e76616c6964206c69717569646974790000000000000000000000000000006000830152602082019050919050565b6111f981611564565b82525050565b60006020820190506112146000830184610fec565b92915050565b600060608201905061122f6000830186610fec565b61123c6020830185610fec565b61124960408301846111f0565b949350505050565b600060e082019050611266600083018a610fec565b6112736020830189610fec565b61128060408301886111f0565b61128d6060830187610ffb565b61129a6080830186610ffb565b6112a760a0830185610fec565b6112b460c08301846111f0565b98975050505050505050565b6000610100820190506112d6600083018b610fec565b6112e3602083018a610fec565b6112f060408301896111f0565b6112fd60608301886111f0565b61130a6080830187610ffb565b61131760a0830186610ffb565b61132460c0830185610fec565b61133160e08301846111f0565b9998505050505050505050565b60006040820190506113536000830185610fec565b61136060208301846111f0565b9392505050565b600060208201905081810360008301526113808161100a565b9050919050565b600060208201905081810360008301526113a081611070565b9050919050565b600060208201905081810360008301526113c0816110b0565b9050919050565b600060208201905081810360008301526113e0816110f0565b9050919050565b6000602082019050818103600083015261140081611130565b9050919050565b6000602082019050818103600083015261142081611170565b9050919050565b60006020820190508181036000830152611440816111b0565b9050919050565b600060208201905061145c60008301846111f0565b92915050565b600060408201905061147760008301856111f0565b61148460208301846111f0565b9392505050565b600082825260208201905092915050565b60006114a782611564565b91506114b283611564565b9250827fffffffffffffffffffffffffffffffffffffffffffffffffffffffffffffffff038211156114e7576114e6611580565b5b828201905092915050565b60006114fd82611564565b915061150883611564565b92508282101561151b5761151a611580565b5b828203905092915050565b600061153182611544565b9050919050565b60008115159050919050565b600073ffffffffffffffffffffffffffffffffffffffff82169050919050565b6000819050919050565b600061157982611564565b9050919050565b7f4e487b7100000000000000000000000000000000000000000000000000000000600052601160045260246000fd5b6115b881611526565b81146115c357600080fd5b50565b6115cf81611538565b81146115da57600080fd5b50565b6115e681611564565b81146115f157600080fd5b5056fea26469706673582212203873b9972fa94f9f6b1576bd8c173fae868c777e673453a689cecbae6624dcd064736f6c63430008000033",
    "linkReferences": {},
    "deployedLinkReferences": {}
}